{
  "contractName": "Predictor",
  "abi": [
    {
      "inputs": [],
      "stateMutability": "nonpayable",
      "type": "constructor"
    },
    {
      "inputs": [
        {
          "internalType": "uint256",
          "name": "",
          "type": "uint256"
        }
      ],
      "name": "betsMap",
      "outputs": [
        {
          "internalType": "uint256",
          "name": "matchId",
          "type": "uint256"
        }
      ],
      "stateMutability": "view",
      "type": "function",
      "constant": true
    },
    {
      "inputs": [
        {
          "internalType": "uint256",
          "name": "",
          "type": "uint256"
        }
      ],
      "name": "matchesMap",
      "outputs": [
        {
          "internalType": "uint256",
          "name": "matchId",
          "type": "uint256"
        },
        {
          "internalType": "uint256",
          "name": "sport",
          "type": "uint256"
        },
        {
          "internalType": "uint256",
          "name": "totalBetsA",
          "type": "uint256"
        },
        {
          "internalType": "uint256",
          "name": "totalBetsB",
          "type": "uint256"
        },
        {
          "internalType": "uint256",
          "name": "betCountA",
          "type": "uint256"
        },
        {
          "internalType": "uint256",
          "name": "betCountB",
          "type": "uint256"
        },
        {
          "internalType": "string",
          "name": "teamA",
          "type": "string"
        },
        {
          "internalType": "string",
          "name": "teamB",
          "type": "string"
        },
        {
          "internalType": "uint256",
          "name": "teamAId",
          "type": "uint256"
        },
        {
          "internalType": "uint256",
          "name": "teamBId",
          "type": "uint256"
        },
        {
          "internalType": "enum Predictor.status",
          "name": "statusId",
          "type": "uint8"
        },
        {
          "internalType": "uint256",
          "name": "winner",
          "type": "uint256"
        }
      ],
      "stateMutability": "view",
      "type": "function",
      "constant": true
    },
    {
      "inputs": [],
      "name": "owner",
      "outputs": [
        {
          "internalType": "address",
          "name": "",
          "type": "address"
        }
      ],
      "stateMutability": "view",
      "type": "function",
      "constant": true
    },
    {
      "inputs": [
        {
          "internalType": "uint256",
          "name": "_matchId",
          "type": "uint256"
        },
        {
          "internalType": "uint256",
          "name": "_sport",
          "type": "uint256"
        },
        {
          "internalType": "string",
          "name": "_teamA",
          "type": "string"
        },
        {
          "internalType": "uint256",
          "name": "_teamAId",
          "type": "uint256"
        },
        {
          "internalType": "string",
          "name": "_teamB",
          "type": "string"
        },
        {
          "internalType": "uint256",
          "name": "_teamBId",
          "type": "uint256"
        }
      ],
      "name": "createMatch",
      "outputs": [
        {
          "internalType": "bool",
          "name": "success",
          "type": "bool"
        }
      ],
      "stateMutability": "nonpayable",
      "type": "function"
    },
    {
      "inputs": [
        {
          "internalType": "uint256",
          "name": "_matchId",
          "type": "uint256"
        },
        {
          "internalType": "uint256",
          "name": "_statusId",
          "type": "uint256"
        }
      ],
      "name": "updateMatchStatus",
      "outputs": [
        {
          "internalType": "bool",
          "name": "",
          "type": "bool"
        }
      ],
      "stateMutability": "nonpayable",
      "type": "function"
    },
    {
      "inputs": [
        {
          "internalType": "uint256",
          "name": "_matchId",
          "type": "uint256"
        }
      ],
      "name": "deleteMatch",
      "outputs": [
        {
          "internalType": "bool",
          "name": "",
          "type": "bool"
        }
      ],
      "stateMutability": "nonpayable",
      "type": "function"
    },
    {
      "inputs": [],
      "name": "getAllMatches",
      "outputs": [
        {
          "components": [
            {
              "internalType": "uint256",
              "name": "matchId",
              "type": "uint256"
            },
            {
              "internalType": "uint256",
              "name": "sport",
              "type": "uint256"
            },
            {
              "internalType": "uint256",
              "name": "totalBetsA",
              "type": "uint256"
            },
            {
              "internalType": "uint256",
              "name": "totalBetsB",
              "type": "uint256"
            },
            {
              "internalType": "uint256",
              "name": "betCountA",
              "type": "uint256"
            },
            {
              "internalType": "uint256",
              "name": "betCountB",
              "type": "uint256"
            },
            {
              "internalType": "string",
              "name": "teamA",
              "type": "string"
            },
            {
              "internalType": "string",
              "name": "teamB",
              "type": "string"
            },
            {
              "internalType": "uint256",
              "name": "teamAId",
              "type": "uint256"
            },
            {
              "internalType": "uint256",
              "name": "teamBId",
              "type": "uint256"
            },
            {
              "internalType": "enum Predictor.status",
              "name": "statusId",
              "type": "uint8"
            },
            {
              "internalType": "uint256",
              "name": "winner",
              "type": "uint256"
            }
          ],
          "internalType": "struct Predictor.MATCH[]",
          "name": "",
          "type": "tuple[]"
        }
      ],
      "stateMutability": "view",
      "type": "function",
      "constant": true
    },
    {
      "inputs": [],
      "name": "getBalance",
      "outputs": [
        {
          "internalType": "uint256",
          "name": "",
          "type": "uint256"
        }
      ],
      "stateMutability": "view",
      "type": "function",
      "constant": true
    },
    {
      "inputs": [
        {
          "internalType": "uint256",
          "name": "_matchId",
          "type": "uint256"
        },
        {
          "internalType": "uint256",
          "name": "_team",
          "type": "uint256"
        }
      ],
      "name": "bet",
      "outputs": [
        {
          "internalType": "bool",
          "name": "",
          "type": "bool"
        }
      ],
      "stateMutability": "payable",
      "type": "function",
      "payable": true
    },
    {
      "inputs": [
        {
          "internalType": "uint256",
          "name": "_matchId",
          "type": "uint256"
        }
      ],
      "name": "getBets",
      "outputs": [
        {
          "components": [
            {
              "internalType": "address",
              "name": "player",
              "type": "address"
            },
            {
              "internalType": "uint256",
              "name": "value",
              "type": "uint256"
            },
            {
              "internalType": "uint256",
              "name": "option",
              "type": "uint256"
            },
            {
              "internalType": "bool",
              "name": "settled",
              "type": "bool"
            }
          ],
          "internalType": "struct Predictor.BET[]",
          "name": "",
          "type": "tuple[]"
        }
      ],
      "stateMutability": "view",
      "type": "function",
      "constant": true
    },
    {
      "inputs": [
        {
          "internalType": "uint256",
          "name": "_matchId",
          "type": "uint256"
        },
        {
          "internalType": "uint256",
          "name": "_team",
          "type": "uint256"
        }
      ],
      "name": "setWinner",
      "outputs": [
        {
          "internalType": "bool",
          "name": "",
          "type": "bool"
        }
      ],
      "stateMutability": "nonpayable",
      "type": "function"
    },
    {
      "inputs": [
        {
          "internalType": "uint256",
          "name": "_matchId",
          "type": "uint256"
        },
        {
          "internalType": "uint256",
          "name": "_winner",
          "type": "uint256"
        },
        {
          "internalType": "uint256",
          "name": "_winningTeamAmount",
          "type": "uint256"
        },
        {
          "internalType": "uint256",
          "name": "_losingTeamAmount",
          "type": "uint256"
        }
      ],
      "name": "calculatePayOuts",
      "outputs": [
        {
          "internalType": "bool",
          "name": "",
          "type": "bool"
        }
      ],
      "stateMutability": "payable",
      "type": "function",
      "payable": true
    }
  ],
  "bytecode": "0x6080604052600060015534801561001557600080fd5b50336000806101000a81548173ffffffffffffffffffffffffffffffffffffffff021916908373ffffffffffffffffffffffffffffffffffffffff1602179055506122cf806100656000396000f3fe6080604052600436106100a75760003560e01c80636ffcc719116100645780636ffcc719146101fb5780638da5cb5b1461022b5780639512ada214610256578063c17c5a4514610293578063dac19224146102be578063f72408d514610306576100a7565b806312065fe0146100ac5780631ccf6955146100d757806343988e52146101145780634447468d146101445780636003ea741461018157806368cbce31146101be575b600080fd5b3480156100b857600080fd5b506100c1610343565b6040516100ce9190611fda565b60405180910390f35b3480156100e357600080fd5b506100fe60048036038101906100f991906116c6565b61034b565b60405161010b9190611e9b565b60405180910390f35b61012e600480360381019061012991906117e4565b610445565b60405161013b9190611edf565b60405180910390f35b34801561015057600080fd5b5061016b6004803603810190610166919061172b565b6105b3565b6040516101789190611edf565b60405180910390f35b34801561018d57600080fd5b506101a860048036038101906101a391906116ef565b610820565b6040516101b59190611edf565b60405180910390f35b3480156101ca57600080fd5b506101e560048036038101906101e091906116ef565b610990565b6040516101f29190611edf565b60405180910390f35b610215600480360381019061021091906116ef565b610b61565b6040516102229190611edf565b60405180910390f35b34801561023757600080fd5b50610240610db7565b60405161024d9190611e80565b60405180910390f35b34801561026257600080fd5b5061027d600480360381019061027891906116c6565b610ddb565b60405161028a9190611edf565b60405180910390f35b34801561029f57600080fd5b506102a861102c565b6040516102b59190611ebd565b60405180910390f35b3480156102ca57600080fd5b506102e560048036038101906102e091906116c6565b6112cb565b6040516102fd9c9b9a99989796959493929190611ff5565b60405180910390f35b34801561031257600080fd5b5061032d600480360381019061032891906116c6565b611468565b60405161033a9190611fda565b60405180910390f35b600047905090565b606060036000838152602001908152602001600020600101805480602002602001604051908101604052809291908181526020016000905b8282101561043a57838290600052602060002090600402016040518060800160405290816000820160009054906101000a900473ffffffffffffffffffffffffffffffffffffffff1673ffffffffffffffffffffffffffffffffffffffff1673ffffffffffffffffffffffffffffffffffffffff16815260200160018201548152602001600282015481526020016003820160009054906101000a900460ff16151515158152505081526020019060010190610383565b505050509050919050565b60008060036000878152602001908152602001600020600101905060005b818054905081101561056d57600082828154811061047d57fe5b90600052602060002090600402019050868160020154146104bb5760018160030160006101000a81548160ff02191690831515021790555050610560565b60008686836001015402816104cc57fe5b0482600101540190508160000160009054906101000a900473ffffffffffffffffffffffffffffffffffffffff1673ffffffffffffffffffffffffffffffffffffffff166108fc829081150290604051600060405180830381858888f1935050505015801561053f573d6000803e3d6000fd5b5060018260030160006101000a81548160ff02191690831515021790555050505b8080600101915050610463565b50600460026000888152602001908152602001600020600a0160006101000a81548160ff021916908360048111156105a157fe5b02179055506001915050949350505050565b60008060009054906101000a900473ffffffffffffffffffffffffffffffffffffffff1673ffffffffffffffffffffffffffffffffffffffff163373ffffffffffffffffffffffffffffffffffffffff1614610644576040517f08c379a000000000000000000000000000000000000000000000000000000000815260040161063b90611f5a565b60405180910390fd5b600060026000898152602001908152602001600020600101541461069d576040517f08c379a000000000000000000000000000000000000000000000000000000000815260040161069490611efa565b60405180910390fd5b60405180610180016040528088815260200187815260200160008152602001600081526020016000815260200160008152602001868152602001848152602001858152602001838152602001600160048111156106f657fe5b8152602001600081525060026000898152602001908152602001600020600082015181600001556020820151816001015560408201518160020155606082015181600301556080820151816004015560a0820151816005015560c082015181600601908051906020019061076b929190611486565b5060e0820151816007019080519060200190610788929190611486565b506101008201518160080155610120820151816009015561014082015181600a0160006101000a81548160ff021916908360048111156107c457fe5b021790555061016082015181600b01559050506004879080600181540180825580915050600190039060005260206000200160009091909190915055600160008154809291906001019190505550600190509695505050505050565b60008060009054906101000a900473ffffffffffffffffffffffffffffffffffffffff1673ffffffffffffffffffffffffffffffffffffffff163373ffffffffffffffffffffffffffffffffffffffff16146108b1576040517f08c379a00000000000000000000000000000000000000000000000000000000081526004016108a890611f5a565b60405180910390fd5b6000600260008581526020019081526020016000206001015411801561090557508160026000858152602001908152602001600020600a0160009054906101000a900460ff16600481111561090257fe5b14155b610944576040517f08c379a000000000000000000000000000000000000000000000000000000000815260040161093b90611f9a565b60405180910390fd5b81600481111561095057fe5b60026000858152602001908152602001600020600a0160006101000a81548160ff0219169083600481111561098157fe5b02179055506001905092915050565b60008060009054906101000a900473ffffffffffffffffffffffffffffffffffffffff1673ffffffffffffffffffffffffffffffffffffffff163373ffffffffffffffffffffffffffffffffffffffff1614610a21576040517f08c379a0000000000000000000000000000000000000000000000000000000008152600401610a1890611f5a565b60405180910390fd5b60006004811115610a2e57fe5b60026000858152602001908152602001600020600a0160009054906101000a900460ff166004811115610a5d57fe5b14610a9d576040517f08c379a0000000000000000000000000000000000000000000000000000000008152600401610a9490611f1a565b60405180910390fd5b60006002600085815260200190815260200160002090506000808260080154851415610ae357826008015483600b01819055508260020154915082600301549050610b1c565b8260090154851415610b0f57826009015483600b01819055508260030154915082600201549050610b1b565b60009350505050610b5b565b5b600283600a0160006101000a81548160ff02191690836004811115610b3d57fe5b0217905550610b528684600b01548484610445565b50600193505050505b92915050565b600080600260008581526020019081526020016000206001015411610bbb576040517f08c379a0000000000000000000000000000000000000000000000000000000008152600401610bb290611f3a565b60405180910390fd5b600060026000858152602001908152602001600020905060016004811115610bdf57fe5b81600a0160009054906101000a900460ff166004811115610bfc57fe5b14610c3c576040517f08c379a0000000000000000000000000000000000000000000000000000000008152600401610c3390611f7a565b60405180910390fd5b8060080154831415610c73578060040160008154809291906001019190505550348160020160008282540192505081905550610cb5565b8060090154831415610caa578060050160008154809291906001019190505550348160030160008282540192505081905550610cb4565b6000915050610db1565b5b6003600085815260200190815260200160002060010160405180608001604052803373ffffffffffffffffffffffffffffffffffffffff16815260200134815260200185815260200160001515815250908060018154018082558091505060019003906000526020600020906004020160009091909190915060008201518160000160006101000a81548173ffffffffffffffffffffffffffffffffffffffff021916908373ffffffffffffffffffffffffffffffffffffffff160217905550602082015181600101556040820151816002015560608201518160030160006101000a81548160ff021916908315150217905550505060019150505b92915050565b60008054906101000a900473ffffffffffffffffffffffffffffffffffffffff1681565b60008060009054906101000a900473ffffffffffffffffffffffffffffffffffffffff1673ffffffffffffffffffffffffffffffffffffffff163373ffffffffffffffffffffffffffffffffffffffff1614610e6c576040517f08c379a0000000000000000000000000000000000000000000000000000000008152600401610e6390611f5a565b60405180910390fd5b6000600260008481526020019081526020016000206001015411610ec5576040517f08c379a0000000000000000000000000000000000000000000000000000000008152600401610ebc90611fba565b60405180910390fd5b6002600083815260200190815260200160002060008082016000905560018201600090556002820160009055600382016000905560048201600090556005820160009055600682016000610f199190611506565b600782016000610f299190611506565b60088201600090556009820160009055600a820160006101000a81549060ff0219169055600b820160009055505060036000838152602001908152602001600020600080820160009055600182016000610f83919061154e565b505060005b600480549050811015611022578260048281548110610fa357fe5b9060005260206000200154141561101557600460016004805490500381548110610fc957fe5b906000526020600020015460048281548110610fe157fe5b90600052602060002001819055506004805480610ffa57fe5b60019003818190600052602060002001600090559055611022565b8080600101915050610f88565b5060019050919050565b60608060048054905067ffffffffffffffff8111801561104b57600080fd5b5060405190808252806020026020018201604052801561108557816020015b611072611572565b81526020019060019003908161106a5790505b50905060005b6004805490508110156112c3576000600482815481106110a757fe5b906000526020600020015490506002600082815260200190815260200160002060405180610180016040529081600082015481526020016001820154815260200160028201548152602001600382015481526020016004820154815260200160058201548152602001600682018054600181600116156101000203166002900480601f0160208091040260200160405190810160405280929190818152602001828054600181600116156101000203166002900480156111a85780601f1061117d576101008083540402835291602001916111a8565b820191906000526020600020905b81548152906001019060200180831161118b57829003601f168201915b50505050508152602001600782018054600181600116156101000203166002900480601f01602080910402602001604051908101604052809291908181526020018280546001816001161561010002031660029004801561124a5780601f1061121f5761010080835404028352916020019161124a565b820191906000526020600020905b81548152906001019060200180831161122d57829003601f168201915b505050505081526020016008820154815260200160098201548152602001600a820160009054906101000a900460ff16600481111561128557fe5b600481111561129057fe5b8152602001600b820154815250508383815181106112aa57fe5b602002602001018190525050808060010191505061108b565b508091505090565b6002602052806000526040600020600091509050806000015490806001015490806002015490806003015490806004015490806005015490806006018054600181600116156101000203166002900480601f01602080910402602001604051908101604052809291908181526020018280546001816001161561010002031660029004801561139b5780601f106113705761010080835404028352916020019161139b565b820191906000526020600020905b81548152906001019060200180831161137e57829003601f168201915b505050505090806007018054600181600116156101000203166002900480601f0160208091040260200160405190810160405280929190818152602001828054600181600116156101000203166002900480156114395780601f1061140e57610100808354040283529160200191611439565b820191906000526020600020905b81548152906001019060200180831161141c57829003601f168201915b50505050509080600801549080600901549080600a0160009054906101000a900460ff169080600b015490508c565b60036020528060005260406000206000915090508060000154905081565b828054600181600116156101000203166002900490600052602060002090601f016020900481019282601f106114c757805160ff19168380011785556114f5565b828001600101855582156114f5579182015b828111156114f45782518255916020019190600101906114d9565b5b50905061150291906115de565b5090565b50805460018160011615610100020316600290046000825580601f1061152c575061154b565b601f01602090049060005260206000209081019061154a91906115de565b5b50565b508054600082556004029060005260206000209081019061156f91906115fb565b50565b60405180610180016040528060008152602001600081526020016000815260200160008152602001600081526020016000815260200160608152602001606081526020016000815260200160008152602001600060048111156115d157fe5b8152602001600081525090565b5b808211156115f75760008160009055506001016115df565b5090565b5b8082111561165957600080820160006101000a81549073ffffffffffffffffffffffffffffffffffffffff0219169055600182016000905560028201600090556003820160006101000a81549060ff0219169055506004016115fc565b5090565b600082601f83011261166e57600080fd5b813561168161167c826120ea565b6120bd565b9150808252602083016020830185838301111561169d57600080fd5b6116a8838284612222565b50505092915050565b6000813590506116c081612282565b92915050565b6000602082840312156116d857600080fd5b60006116e6848285016116b1565b91505092915050565b6000806040838503121561170257600080fd5b6000611710858286016116b1565b9250506020611721858286016116b1565b9150509250929050565b60008060008060008060c0878903121561174457600080fd5b600061175289828a016116b1565b965050602061176389828a016116b1565b955050604087013567ffffffffffffffff81111561178057600080fd5b61178c89828a0161165d565b945050606061179d89828a016116b1565b935050608087013567ffffffffffffffff8111156117ba57600080fd5b6117c689828a0161165d565b92505060a06117d789828a016116b1565b9150509295509295509295565b600080600080608085870312156117fa57600080fd5b6000611808878288016116b1565b9450506020611819878288016116b1565b935050604061182a878288016116b1565b925050606061183b878288016116b1565b91505092959194509250565b60006118538383611d02565b60808301905092915050565b600061186b8383611d57565b905092915050565b61187c816121b5565b82525050565b61188b816121b5565b82525050565b600061189c82612136565b6118a68185612171565b93506118b183612116565b8060005b838110156118e25781516118c98882611847565b97506118d483612157565b9250506001810190506118b5565b5085935050505092915050565b60006118fa82612141565b6119048185612182565b93508360208202850161191685612126565b8060005b858110156119525784840389528151611933858261185f565b945061193e83612164565b925060208a0199505060018101905061191a565b50829750879550505050505092915050565b61196d816121c7565b82525050565b61197c816121c7565b82525050565b61198b81612210565b82525050565b61199a81612210565b82525050565b60006119ab8261214c565b6119b58185612193565b93506119c5818560208601612231565b6119ce81612264565b840191505092915050565b60006119e48261214c565b6119ee81856121a4565b93506119fe818560208601612231565b611a0781612264565b840191505092915050565b6000611a1f602a836121a4565b91507f43616e6e6f74206372656174652061206d6174636820696620697420616c726560008301527f61647920657869737473000000000000000000000000000000000000000000006020830152604082019050919050565b6000611a85602a836121a4565b91507f43616e6e6f7420736574207468652077696e6e6572206966207468652062657460008301527f7320617265206f70656e000000000000000000000000000000000000000000006020830152604082019050919050565b6000611aeb6029836121a4565b91507f43616e6e6f7420626574206f6e2061206d61746368207468617420646f65732060008301527f6e6f7420657869737400000000000000000000000000000000000000000000006020830152604082019050919050565b6000611b516027836121a4565b91507f46756e6374696f6e2061636365737369626c65206f6e6c79206279207468652060008301527f6f776e65722021000000000000000000000000000000000000000000000000006020830152604082019050919050565b6000611bb76027836121a4565b91507f43616e6e6f7420626574206f6e2061206d61746368206966206974206973206e60008301527f6f74206f70656e000000000000000000000000000000000000000000000000006020830152604082019050919050565b6000611c1d6053836121a4565b91507f43616e6e6f74207570646174652074686520737461747573206f66207468652060008301527f6d6174636820696620697420646f65736e2774206578697374206f722074686560208301527f20737461747573206973207468652073616d65000000000000000000000000006040830152606082019050919050565b6000611ca9602c836121a4565b91507f43616e6e6f742064656c65746520746865206d6174636820696620697420646f60008301527f6573206e6f7420657869737400000000000000000000000000000000000000006020830152604082019050919050565b608082016000820151611d186000850182611873565b506020820151611d2b6020850182611e62565b506040820151611d3e6040850182611e62565b506060820151611d516060850182611964565b50505050565b600061018083016000830151611d706000860182611e62565b506020830151611d836020860182611e62565b506040830151611d966040860182611e62565b506060830151611da96060860182611e62565b506080830151611dbc6080860182611e62565b5060a0830151611dcf60a0860182611e62565b5060c083015184820360c0860152611de782826119a0565b91505060e083015184820360e0860152611e0182826119a0565b915050610100830151611e18610100860182611e62565b50610120830151611e2d610120860182611e62565b50610140830151611e42610140860182611982565b50610160830151611e57610160860182611e62565b508091505092915050565b611e6b81612206565b82525050565b611e7a81612206565b82525050565b6000602082019050611e956000830184611882565b92915050565b60006020820190508181036000830152611eb58184611891565b905092915050565b60006020820190508181036000830152611ed781846118ef565b905092915050565b6000602082019050611ef46000830184611973565b92915050565b60006020820190508181036000830152611f1381611a12565b9050919050565b60006020820190508181036000830152611f3381611a78565b9050919050565b60006020820190508181036000830152611f5381611ade565b9050919050565b60006020820190508181036000830152611f7381611b44565b9050919050565b60006020820190508181036000830152611f9381611baa565b9050919050565b60006020820190508181036000830152611fb381611c10565b9050919050565b60006020820190508181036000830152611fd381611c9c565b9050919050565b6000602082019050611fef6000830184611e71565b92915050565b60006101808201905061200b600083018f611e71565b612018602083018e611e71565b612025604083018d611e71565b612032606083018c611e71565b61203f608083018b611e71565b61204c60a083018a611e71565b81810360c083015261205e81896119d9565b905081810360e083015261207281886119d9565b9050612082610100830187611e71565b612090610120830186611e71565b61209e610140830185611991565b6120ac610160830184611e71565b9d9c50505050505050505050505050565b6000604051905081810181811067ffffffffffffffff821117156120e057600080fd5b8060405250919050565b600067ffffffffffffffff82111561210157600080fd5b601f19601f8301169050602081019050919050565b6000819050602082019050919050565b6000819050602082019050919050565b600081519050919050565b600081519050919050565b600081519050919050565b6000602082019050919050565b6000602082019050919050565b600082825260208201905092915050565b600082825260208201905092915050565b600082825260208201905092915050565b600082825260208201905092915050565b60006121c0826121e6565b9050919050565b60008115159050919050565b60008190506121e182612275565b919050565b600073ffffffffffffffffffffffffffffffffffffffff82169050919050565b6000819050919050565b600061221b826121d3565b9050919050565b82818337600083830152505050565b60005b8381101561224f578082015181840152602081019050612234565b8381111561225e576000848401525b50505050565b6000601f19601f8301169050919050565b6005811061227f57fe5b50565b61228b81612206565b811461229657600080fd5b5056fea2646970667358221220b15a2d09f19c645cb73a3509204a2ba2b1f4a02ae6c35b615a0a8ed974821a0764736f6c63430007000033",
  "immutableReferences": {},
  "source": "// SPDX-License-Identifier: GPL-3.0\r\n\r\npragma solidity >=0.7.0 <0.9.0;\r\npragma experimental ABIEncoderV2;\r\ncontract Predictor {\r\n\r\n    address public owner;\r\n\r\n    //address payable public ownerAccount;\r\n\r\n    constructor () {\r\n        owner = msg.sender;\r\n        //ownerAccount = payable(owner);\r\n        //createMatch(101, 1, \"India\", 4, \"Australia\", 1);\r\n    }\r\n\r\n    modifier onlyOwner()\r\n    {\r\n        require(msg.sender == owner, \"Function accessible only by the owner !\");\r\n        _;\r\n    }\r\n\r\n    enum status {\r\n        CLOSED, OPEN, AWAITED, SUSPENDED, ENDED\r\n    }\r\n\r\n    struct BET {\r\n        address player;\r\n        uint value;\r\n        uint option;\r\n        bool settled;\r\n    }\r\n\r\n    struct MATCH {\r\n        uint matchId;\r\n        uint sport;\r\n        uint totalBetsA;\r\n        uint totalBetsB;\r\n        uint betCountA;\r\n        uint betCountB;\r\n        string teamA;\r\n        string teamB;\r\n        uint teamAId;\r\n        uint teamBId;\r\n        status statusId;\r\n        uint winner;\r\n    }\r\n\r\n    struct MATCHBETS {\r\n        uint matchId;\r\n        BET[] bets;\r\n    }\r\n\r\n    uint totalMatches = 0;\r\n    mapping(uint => MATCH) public matchesMap;\r\n\r\n    mapping(uint => MATCHBETS) public betsMap;\r\n\r\n    uint[] matches;\r\n\r\n    function createMatch (uint _matchId, uint _sport, string memory _teamA, uint _teamAId, string memory _teamB, uint _teamBId) public onlyOwner returns (bool success){\r\n        require(matchesMap[_matchId].sport == 0, \"Cannot create a match if it already exists\");\r\n        matchesMap[_matchId] = MATCH({\r\n            matchId: _matchId,\r\n            sport: _sport,\r\n            teamA: _teamA,\r\n            teamAId: _teamAId,\r\n            teamB: _teamB,\r\n            teamBId: _teamBId,\r\n            totalBetsA: 0,\r\n            totalBetsB: 0,\r\n            betCountA: 0,\r\n            betCountB: 0,\r\n            statusId: status.OPEN,\r\n            winner: 0\r\n        });\r\n\r\n        matches.push(_matchId);\r\n        totalMatches++;\r\n        return true;\r\n    }\r\n\r\n    function updateMatchStatus (uint _matchId, uint _statusId) public onlyOwner returns (bool){\r\n        require(matchesMap[_matchId].sport > 0 && uint(matchesMap[_matchId].statusId) != uint(_statusId), \"Cannot update the status of the match if it doesn't exist or the status is the same\");\r\n        matchesMap[_matchId].statusId = status(_statusId);\r\n        return true;\r\n    }\r\n\r\n    function deleteMatch (uint _matchId) public onlyOwner returns (bool){\r\n        require(matchesMap[_matchId].sport > 0, \"Cannot delete the match if it does not exist\");\r\n        delete matchesMap[_matchId];\r\n        delete betsMap[_matchId];\r\n\r\n        for(uint i=0;i<matches.length;i++) {\r\n            if(matches[i] == _matchId) {\r\n                matches[i] = matches[matches.length - 1];\r\n                matches.pop();\r\n                break;\r\n            }\r\n        }\r\n\r\n        return true;\r\n    }\r\n\r\n    function getAllMatches() public view returns (MATCH[] memory) {\r\n        MATCH[] memory _matches = new MATCH[](matches.length);\r\n\r\n        for(uint i=0;i<matches.length;i++) {\r\n            uint _mid = matches[i];\r\n            _matches[i] = matchesMap[_mid];\r\n            //_matches.push(matchesMap[_mid]);\r\n        }\r\n\r\n        return _matches;\r\n\r\n    }\r\n\r\n    function getBalance() public view returns (uint){\r\n        return address(this).balance;\r\n    }\r\n\r\n    function bet (uint _matchId, uint _team) public payable returns (bool) {\r\n        require(matchesMap[_matchId].sport > 0, \"Cannot bet on a match that does not exist\");\r\n\r\n        MATCH storage thisMatch = matchesMap[_matchId];\r\n\r\n        require(thisMatch.statusId == status.OPEN, \"Cannot bet on a match if it is not open\");\r\n        //Check if the user has already created a bet\r\n\r\n        if(_team == thisMatch.teamAId) {\r\n            thisMatch.betCountA++;\r\n            thisMatch.totalBetsA += msg.value;\r\n        } else if (_team == thisMatch.teamBId) {\r\n            thisMatch.betCountB++;\r\n            thisMatch.totalBetsB += msg.value;\r\n        } else {\r\n            return false;\r\n        }\r\n\r\n        betsMap[_matchId].bets.push(BET(msg.sender, msg.value, _team, false));\r\n\r\n\r\n        //ownerAccount.transfer(msg.value);\r\n        //(bool sent,) = owner.call{value: msg.value}(\"\");\r\n        //require(sent, \"Failed to send Ether\");\r\n        return true;\r\n    }\r\n\r\n    function getBets (uint _matchId) public view returns (BET[] memory){\r\n        return betsMap[_matchId].bets;\r\n    }\r\n\r\n    function setWinner (uint _matchId, uint _team) public onlyOwner returns (bool) {\r\n\r\n        require(matchesMap[_matchId].statusId == status.CLOSED, \"Cannot set the winner if the bets are open\");\r\n        MATCH storage thisMatch = matchesMap[_matchId];\r\n        uint _winningTeamAmount;\r\n        uint _losingTeamAmount;\r\n        if(_team == thisMatch.teamAId) {\r\n            thisMatch.winner = thisMatch.teamAId;\r\n            _winningTeamAmount = thisMatch.totalBetsA;\r\n            _losingTeamAmount = thisMatch.totalBetsB;\r\n        } else if (_team == thisMatch.teamBId) {\r\n            thisMatch.winner = thisMatch.teamBId;\r\n            _winningTeamAmount = thisMatch.totalBetsB;\r\n            _losingTeamAmount = thisMatch.totalBetsA;\r\n        } else {\r\n            return false;\r\n        }\r\n\r\n        thisMatch.statusId = status.AWAITED;\r\n        calculatePayOuts(_matchId, thisMatch.winner, _winningTeamAmount, _losingTeamAmount);\r\n        return true;\r\n\r\n    }\r\n\r\n    function calculatePayOuts(uint _matchId, uint _winner, uint _winningTeamAmount, uint _losingTeamAmount) public payable returns (bool){\r\n        BET[] storage _allBets = betsMap[_matchId].bets;\r\n\r\n        for(uint i=0;i<_allBets.length;i++) {\r\n\r\n            BET storage _thisBet = _allBets[i];\r\n            if(_thisBet.option != _winner) {\r\n                _thisBet.settled = true;\r\n                continue;\r\n            }\r\n\r\n            uint gain = _thisBet.value +  ((_thisBet.value * _losingTeamAmount) / _winningTeamAmount);\r\n            payable(_thisBet.player).transfer(gain);\r\n            _thisBet.settled = true;\r\n        }\r\n\r\n        matchesMap[_matchId].statusId = status.ENDED;\r\n        return true;\r\n    }\r\n}",
  "sourcePath": "/Users/ronak.bhandari/Sites/predictor/predictor/contracts/Predictor.sol",
  "compiler": {
    "name": "solc",
    "version": "0.7.0+commit.9e61f92b.Emscripten.clang"
  },
  "schemaVersion": "3.4.11",
  "updatedAt": "2023-01-26T20:29:25.497Z",
  "networkType": "ethereum",
  "devdoc": {
    "kind": "dev",
    "methods": {},
    "version": 1
  },
  "userdoc": {
    "kind": "user",
    "methods": {},
    "version": 1
  }
}